:400000000080002011000000B1060000B106000008B5044B1A6803F53F5302331A6000F067FB00BFFA46004010B5054C237833B9044B13B10448AFF300800123237010BDA7
:400040006081FF1F0000000088310000084B10B51BB108490848AFF300800848036803B910BD074B002BFBD0BDE81040184700BF000000006481FF1F88310000C880FF1F60
:400080000000000008B5044B1B780122034B1A6000F06AFD08BD00BF646500407C81FF1F08B5012000F07EFB642000F0E7FC002000F078FB08BD00BF08B500F0AFFD034B6B
:4000C0009888013800F076FD08BD00BF7C81FF1F10B500F075FD044600F046FD024B9888001B013810BD00BF7C81FF1FF8B5044600254601C70EBB0043EA9673B200921913
:400100007B4112186B41990141EA92619001021B61EB0503590141EAD261500180185941034A00230019694102F002FAF8BD00BF00366E012DE9F04FB5B062B6804800F074
:40014000A3FD00F057FC00F077FD02F083F900F01FFD7C4B988000221146072000F000F90021084600F0B2FE00F0F4FE804600F0D3FF002400250026724B1E603146304646
:4001800000F046FC704F384600F0DAFB3146012000F03EFC384600F0D3FBB8F1000F02D100F0D8FE8046FFF77BFF00F007FB18B9644B1B68002BF8D0FFF77EFF00F0FEFA43
:4001C00018B1604B1B68002BF8D0FFF781FF06465C4B1B68002B40F0AE800021084600F017FC594800F0ACFB0021084600F010FC3046FFF77BFF06460F46241A65EB010570
:40020000A900A20041EA94734FEA431B4BEAD26B4FEA421ABAEB02026BEB0303A4185D41EB0043EA5473E20014461D46642200232046294602F07CF9814601910A22002339
:400240003046394602F074F902900A2200233046394602F06DF903924FF47A7200232046294602F065F904460A2200234846019902F05EF91546002A00DA5542039B029AB6
:40028000324924A802F05CFB2B462246304914A802F056FB0021084600F0BAFB2D4800F04FFB24A800F04CFB0021012000F0B0FB294800F045FB14A800F042FB642E77F136
:4002C000000303DA012000F0EDFC02E0002000F0E9FC4B463246214904A802F031FB00F0B7FF28B1B8F1000F02D004A800F060FF144AD3883344A3F5C8731BB2D380B3F541
:40030000FA7F05DD13464FF4FA721A81DA800AE013F5FA7F05DA0B4B4FF60C621A81DA8001E0084A1381074BB3F90810072000F057F834463D46642000F08AFB1BE700BF23
:40034000850000007C81FF1F94310000A8310000B4310000C0310000C4310000C83100002DE9F0410446B2F5806F01D340F2FF32B1F5806F01D340F2FF31160AD5B24FEA72
:400380001128CFB2FF2002F073F8FF2002F070F8204602F06DF8072002F06AF8032002F067F8062002F064F8384602F061F8404602F05EF8284602F05BF8304602F058F86C
:4003C00038194044284430441030C0B2C043C0B202F04EF8022000F03BFBBDE8F08100BF70B50546002903DA494289B2012401E089B20024B1F5806F01D340F2FF3141EA35
:40040000842424B2C4F30726E4B2FF2002F030F8FF2002F02DF8284602F02AF8052002F027F8032002F024F8202002F021F8204602F01EF8304602F01BF8601930442830F3
:40044000C0B2C043C0B202F013F8022000F000FB70BD00BFFEE700BFF0B40022174611E050F82760F3B226F0FF0608E001EB420511F812406D78A5550132013BDBB2002BDC
:40048000F4D101371D2FEBD9F0BC7047064B1B78DBB203F00701054A11701B09013213704422034B1A707047CF0100496E5800407658004008B50A46002102F038FA08BD7D
:4004C00038B50322264B1A801823264A1370332102321180023213700622234B1A705222A3F580731A70214B1B78DBB2204A13704FF4E2621F4B1A8041F25122023B1A80B7
:40050000002419250CE01C4B1B7803F0010343EA440404F003044FF4F07001F0C5FF013D0DB1032CEFD115B90320FFF793FF134A4FF48073138007231370002310490B7086
:4005400048200231087013700532137002220D4B1A700D4A137843F00303137038BD00BF8040004082400040004300400F010049A1460040224200402542004004400040FF
:400580000640004001400040A243004008B502F0C3F908BD38B572B6314A137843F00403137000240CE02F4D630019194A0011462A44084691882858FFF77CFF0134E4B2B4
:4005C000052CF0D928494FF09040FFF745FF274A137843F0020313701032137843F002031370234C237843F040032370A2F58632513A137843F0100313700A221D491E48CF
:40060000FFF7C4FF08221D491D48FFF7BFFF0A221C491D48FFF7BAFF08221C491C48FFF7B5FF08221B491C48FFF7B0FF08221B491B48FFF7ABFF1B4A137843F0080313703D
:40064000194D61232B70FFF73BFFC1232B70FFF71DFF0E2221461548FFF798FF38BD00BFE8460040D03100007800004803500140A0430040E404004800510040F00400481C
:40068000C2510040F8040048F051004004050048125100400C0500482251004014050048625100402243004000480040B043004008B502F005F903680C2B00D1FEE7FEE784
:4006C00008B5094B1A681044084BC31A802B02DC054B186005E002F0F3F80C2303604FF0FF32104608BD00BFCC80FF1F8082FF1F08B5104E104D16E029686B68AC68002262
:4007000004E051F8040B43F8040B0432A242F8D1E868002203E0002143F8041B04328242F9D11035013E002EE6D102F0CFF8FFF701FDFEE7010000003434000008B5104A41
:40074000104B1A60104A136843F40073136000230AE0032B03D80D4A52F8231000E00C490C4A42F8231001332F2BF2D90A4B1A780A4B1A70074A0A4B1A60FFF70BFF08BDCC
:400780000004FA050CED00E014ED00E000000000B10600000080FF1FBC760040C080FF1F08ED00E0044A137803F0FD03400000F00200184310707047C0510040024B1878C4
:4007C000C0F3C000704700BFC151004010B50B4C237803F09F032370237803F0F00323702378184340F010002070012000F046F9237803F0EF03237010BD00BF2051004065
:4008000038B505460E4C237843F020032370237803F0BF032370002000F030F9237803F0F003237023781D4345F010052570012000F024F9237803F0EF03237038BD00BFA3
:400840002051004070B5354B1A7802F08002D2B21A7033490A7802F0F00242F00F020A7001310A7802F0F0020A7001310A7802F0F0020A701A7802F0DF021A701A7842F098
:4008800040021A704FF4CA76002000F0F7F8234D2B7843F010032B70012000F0EFF8214B1C78E4B22B7803F0EF032B70002000F0E5F804F00804E4B22B7843F010032B703E
:4008C000012000F0DBF82B7803F0EF032B7014B90A2000F0D3F8013E0CB1002ED4D10F4A137803F0BF031370137803F08003DBB213700232137803F0F0031370013213785D
:4009000003F0F00343F00F0313700132137803F0F00343F00F03137070BD00BF20510040225100402151004010B50446FFF78AFF2009FFF765FF04F00F00FFF761FF10BD64
:4009400038B505460078012404E0FFF7EDFF285D0134E4B20028F8D138BD00BF10B50446FFF770FF2009FFF731FF04F00F00FFF72DFF10BD08B5282000F06AF80320FFF7C2
:4009800025FF052000F064F80320FFF71FFF0F2000F05EF80320FFF719FF012000F058F80220FFF713FF052000F052F80620FFF7D5FF0E20FFF7D2FF2C20FFF7CFFF0820BE
:4009C000FFF7CCFF0120FFF7C9FF0C20FFF7C6FF0320FFF7C3FF052000F03AF808BD00BF08B50C20FFF7BAFF0122014B1A7008BD8681FF1F08B5054B5B7823B9FFF7BAFFE4
:400A00000122024B5A70FFF7EBFF08BD8681FF1F08B5032819D8DFE800F002070D1381F08000FFF79BFF08BDA1F14000C0B2FFF795FF08BDA1F16C00C0B2FFF78FFF08BD67
:400A4000A1F12C00C0B2FFF789FF08BD01BE704710B5044605E0084B186801F025FDA4F50044B4F5004FF6D8034B586800FB04F001F01AFD10BD00BFD080FF1F08B5034B06
:400A80001B7A00FB03F001F00FFD08BDD080FF1F70B504460E46074B1D681F2802D90020FFF7D4FF04F01F04103455F8240045F8246070BD08ED00E038B504460D46072995
:400AC00002D90020FFF7C2FF1F2C02D90020FFF7BDFF04F01F0000F1604000F564406D01EDB2057038BD00BF134B1B78DBB20360124A127843EA02230360114A127843EA4B
:400B0000024303600F4A127843EA026303600E4B1B78DBB243600D4A127843EA022343600B4A127843EA024343600A4A127843EA02634360704700BF03010049040100492B
:400B4000EC4600400201004901010049000100490501004906010049024A137843F080031370704774650040024A137803F07F031370704774650040014B1870704700BFBA
:400B800084650040014B1878704700BF64650040014B1868704700BF24650040014B1860704700BF24650040014B1868704700BF44650040014B1860704700BF0465004095
:400BC000024B1B78024B1868704700BF046500404465004008B501E0FFF7E6FFFFF7D2FF10F0080FF8D108BD08B54FF0FF30FFF7D5FF4FF0FF30FFF7DDFF01F05DFC064A8C
:400C0000137843F01003137001F05AFCFFF7E2FF0120FFF7B1FF08BD9465004008B5054B1B7823B9FFF7E0FF0122024B1A70FFF793FF08BD8881FF1F054A137843F00103AD
:400C400013701032137843F001031370704700BFA2430040014B1B681864704708ED00E04001C0B2014B1870704700BF00E400E00122014B1A60704700E100E00122014B67
:400C80001A60704780E100E010B50446FFF7F6FF2046FFF7DFFF0720FFF7E2FFFFF7E8FF10BD00BF044A137803F0FB03800000F0040018431070704760510040F8B501F0C8
:400CC000FBFB0746404A137843F0010313701032137843F00103137001263C4B1E700225943B1D7002F5E2521B32137803F07F0313700020FFF7C2FE354C237803F0F903C0
:400D00002370344A137803F0DF0313702378334323703046FFF7B2FE2820FFF7AFFE2E4B1A7802F07F021A701A7802F0BF021A7023782B4323702846FFF7A0FE237843F0D1
:400D4000040323700023254A137001321370384601F0B6FB07211720FFF7AEFE20491720FFF796FE07211820FFF7A6FE1D491820FFF78EFE07211520FFF79EFE1A49152022
:400D8000FFF786FE07213046FFF796FE17493046FFF77EFE07212846FFF78EFE14492846FFF776FE07210320FFF786FE11490320FFF76EFE07210C20FFF77EFE0E490C200F
:400DC000FFF766FEF8BD00BFA54300409D6000409443004012600040F851004084600040D1170000B9150000CD1700002D1700005D170000911700006D1A000010B50023E1
:400E000004E00124244AD4542344DBB2012BF8D9224B18700023224A1370224A1370224A1370224A1370224A1370224A1370224A1370224B4FF400021A604FF080721A60AA
:400E40004FF400121A6002221A6004221A6008221A6011B1012906D00BE0194A137803F0FE0313700AE0164A137843F00103137004E0134A137843F0010313700322114B19
:400E80001A708022203B1A70012001F00DFB04220D4B1A7010BD00BF4C82FF1FB181FF1FB481FF1FD081FF1FD381FF1FC881FF1FD281FF1FD581FF1FB081FF1F00E100E0A7
:400EC00009600040286000401260004038B504460D46064B1B7823B9FFF7F0FE0122034B1A7029462046FFF789FF38BD8981FF1F002304E001210E4AD1540B44DBB2012B88
:400F0000F8D900230B4A13700B4A13700B4A13700B4A13700B4A13700B4A13700B4A137003220B4B1A708022203B1A70704700BF4C82FF1FB481FF1FD081FF1FD381FF1FB3
:400F4000C881FF1FD281FF1FD581FF1FB081FF1F28600040014B1878704700BFD381FF1F00EB40008300024A13445878704700BFD881FF1F431EDBB2072B3CD8F0B4074617
:400F800000EB4004A3001C4C2344DB889BB2C3F500739A4208D900EB400293002344DA8892B2C2F5007292B200EB4004A300124C2344DB7843EA1223104D04012E192B5549
:400FC000D3B2737039B909E0CE5C3D010C4C665501339BB200E000239A42F5D8420002449300054A134400225A705A79D2B20001044B1A54F0BC7047D881FF1FFC5F0040CF
:4010000078600040FE5F0040431EDBB2072B0BD8420002449300054A134400225A705A79D2B20001024B1A54704700BFD881FF1FFE5F00400246002001E0013080B2135C93
:40104000002BFAD1704700BF10B4FF2400230EE0094AD25C02EB42029100084A11448A7AD2B2824201D11C4602230133DBB2012BEED9204610BC7047A081FF1FD881FF1F2A
:4010800010B5204C2079FFF7DFFF237813F0800F0ED06378DBB2212B2FD11B4B07221A80C0EBC000194A1044586000F0F3FA10BD144B5B78DBB2202B02D0222B10D01EE01F
:4010C000114A07231380C0EBC00310490B4453600F4A135C43F00103135400F003FB10BD084B9B780B4A22F81030094A135C43F00203135400F08CF910BD002010BD002029
:4011000010BD00BF00600040BC81FF1FE080FF1F9881FF1FAC81FF1F10B500241F4B1C701F4B1C705C700AE01E4B185DC0B2431EDBB2072B01D8FFF767FF0134E4B2012C00
:40114000F2D9194B1B7813F0FF0F1AD0154B1B7813F0FF0F17D0154B1B7813F0FF0F14D0114B1B78DBB2082B11D80E4B1B78DBB2082B0ED80D4B1B78DBB2082B0BD8002007
:4011800010BD012010BD012010BD012010BD012010BD012010BD012010BD00BF8A81FF1F9881FF1FA481FF1F9C81FF1FA081FF1F2DE9F8438046234B1B78234AD65CF6B293
:4011C000FFF738FF05460027344606EB460293001E4A13441B899BB29D4209D906EB460293001A4A1344B3F808901FFA89F900E0A9464A4608EB07013046FFF7BBFEC9EB01
:401200000505ADB245B906EB460293000F4A13441B899BB2994510D14F44BFB204EB440293000A4A13445B7813F0FF0FF6D025B9002211463046FFF79DFE002DC4D1BDE835
:40124000F88300BF8A81FF1F9C81FF1FD881FF1F08B5034B1B78034AD05CFFF781FE08BD8A81FF1F9C81FF1FC37803F0030390F9020000280FDA032B06D002F001030B4887
:40128000C15442F001020EE0C2F380030848C15442F0040207E0032B05D0C2F340030548C15442F002021046704700BF9C81FF1FA081FF1FA481FF1F1D4B19781D4A138823
:4012C0009BB20B449BB2138000220FE01A494B681B78DBB2194883544B6801334B600132D2B20B889BB2013B9BB20B80124B1B889BB20BB1072AE9D90D4B1B78DBB2082B0F
:4013000000D05AB10E490B7883F080030B700F210C4B197002210C4B197004E0022309490B7009490B70094B1A70014B1A707047B081FF1FB281FF1FBC81FF1F00600040CB
:401340004682FF1FD181FF1FB481FF1FD481FF1F0222074B1A708022064B1A700F22064B1A700023054A1370054A137001207047B481FF1F4682FF1FD181FF1FB081FF1F31
:40138000D481FF1F08B5FFF797FF08BD10B4194B197801F00F010239C9B2174A13889BB20B449BB21380002011E0144A5468144B1B5CDBB223705368013353600130C0B25E
:4013C0000139C9B213889BB2013B9BB213800B4B1B889BB20BB10029E7D10A4B19700A4A137883F0800313700B22084B1A7010BC704700BF29600040B281FF1FBC81FF1F5A
:4014000000600040D481FF1F4682FF1FD181FF1F0623064A1370064A13708022054B1A700022054B1A700120704700BFB481FF1FD181FF1F4682FF1FD481FF1F064B9B68F5
:4014400043B1054B9A6810709A6804490988518000229A60704700BFBC81FF1FB281FF1F08B5134B1A78D2B21A701B78DBB213F0800F02D00F4A137008BD0220FFF7DEFFE2
:401480000D4B1B7803F06003202B05D0402B06D043B900F0DDFD06E001F016F803E000F085FF00E0002010B90322024B1A7008BD28600040D181FF1F0060004008B5094B15
:4014C0001978094A13889BB20B449BB213800022064B1A700120FFF7B1FF0322044B1A7008BD00BFB081FF1FB281FF1FB481FF1FD181FF1F08B50B4B1B78DBB2042B06D010
:40150000062B07D0022B0BD1FFF7D8FF08BDFFF73DFF08BD0320FFF791FF0322024B1A7008BD00BFB481FF1FD181FF1F08B50022044B1A700120FFF781FF0322024B1A70DA
:4015400008BD00BFB481FF1FD181FF1F08B50B4B1B7813F0FF0F07D0084A137843F0800307490B70002313700022064B1A700120FFF764FF0322044B1A7008BDD281FF1FE7
:4015800008600040B481FF1FD181FF1F08B5094B1B78DBB2042B06D0062B07D0022B07D1FFF7F0FE08BDFFF7C1FF08BDFFF7CEFF08BD00BFB481FF1F08B5284B1B78DBB26F
:4015C00013F0100F48D013F0800F0CD003F00F03012B16D1FFF744FF214B1B7813F0800F11D1012312E013F0400F03D0FFF7CEFF01230BE013F0200F07D0FFF77BFF0123D5
:4016000004E0002302E0002300E0002323B3134B1B7813F0800F1FD1124B1B78124A12781343124A13701278D2B2934214D10C4B1B78DBB2094A127812F0800F07D1084B6F
:401640001B78DBB2054A1370137803F00F03044A1278D2B29342EAD108BD00BF28600040D181FF1F4682FF1FD481FF1F296000400022064B1A80064B9B682BB1044A91689A
:4016800000230B7092685380704700BFB281FF1FBC81FF1F08B50F4B1B889BB213B9FFF757FE15E002220C4B1A7000220B4B1A70FFF7DEFF0A4AD179937943EA0123054A66
:4016C000128892B2934201D2024A1380FFF7F4FD012008BDBC81FF1FB481FF1F4682FF1F0060004008B504220B4B1A7080220B4B1A70FFF7BDFF0A4AD179937943EA012392
:40170000084A128892B2934201D2064A13800B22054B1A70012008BDB481FF1F4682FF1F00600040BC81FF1FD181FF1F0122094B1A700F3B9B7C084B1B7B03F00303934244
:4017400004D0054AD37B83F08003D3730122024B5A7370470B600040D881FF1F02220A4B1A700F3B93F82230084B1B7E03F00303012B04D0054AD37E83F08003D376012295
:40178000024B5A76704700BF0B600040D881FF1F04220C4B1A700F3B93F832300A4B93F8243003F00303012B06D0074A92F8273083F0800382F827300122034B83F82520DD
:4017C000704700BF0B600040D881FF1F704700BF08B5FFF78DFB08BD08B50C4B18780138C0B200F0CFF90A4B1B79DBB29A1C00EBC20042680749CB5C02EBC3035B68596AA1
:401800000B78054A1380516008BD00BFD381FF1F006000404482FF1FBC81FF1F08B50E4B18780138C0B200F0ADF90C4B1B79DBB29A1C00EBC20042680949CB5C02EBC30325
:401840005B68DB69597813F8022B42EA012205490A804B6008BD00BFD381FF1F006000404482FF1FBC81FF1F10B500221A4B1A801A4B18780138C0B200F084F91849CB781A
:40188000DAB20B79DBB2991C00EBC1004168012B20D81448C35C01EBC3014968531EDBB2022B17D802F10053013B01EBC3000C4A9278D2B211F833309A420BD8406802EB92
:4018C0004202910042185468034B5C60415A198092689A6010BD00BFBC81FF1FD381FF1F006000404482FF1F08B55B4B1A79D2B21B7813F0800F4DD0574B5B78013B052B51
:4019000000F28E80DFE803F0212B3B8C8C03524BDB78DBB2212B09D1FFF75EFF4F4B1B889BB2002B7ED0FFF7B5FE08BD4A4BDB78DBB2222B78D1FFF771FF484B1B889BB2F0
:40194000002B73D0FFF7A6FE08BDFFF78DFF434B1B889BB2002B6BD0FFF79CFE08BD012A68D83D4B9B7813F0FF0F65D13B4901230B803B4B1A444A60FFF78CFE08BD012A61
:401980005CD8364901230B80364B1A444A60FFF781FE08BD304B5B78DBB20A2B0DD00B2B2FD0092B4CD1FFF75FFF2C4B1B889BB2002B47D0FFF796FE08BD012A44D8264B8B
:4019C0009B7813F0FF0F41D1234BDB78DBB224498B54895CC9B2244B9B5CDBB2994203D20021214B995409E01F4B9B5CDBB2012B04D91B4B9B5CDBB21B498B54FFF708FD92
:401A000008BD012A24D8144B9B78DBB2012B21D8114B9B78DBB213498B54FFF7F9FC08BD002008BD002008BD002008BD002008BD002008BD002008BD002008BD002008BD87
:401A4000002008BD002008BD002008BD002008BD002008BD002008BD00600040BC81FF1F5482FF1F4C82FF1F5082FF1F08B500F0BBFC08BD70B588B0054603AC174E0FCE7B
:401A80000FC43368237035B322232B7003236B7001A8FFF729F8002402231AE008AA224412F81C2C08A901EB121111F8141CE954581C00212954981C02F00F0208AE3244C4
:401AC00012F8142C2A54DA1CA9540134E4B20433DBB2212BE2D908B070BD00BFF431000010B401233EE019461A010C242148845403EB4300820020480244527912F0FF0F9F
:401B000013D003EB430082001B480244127912F0800F04D01801194A024494700AE01801164A02440820907004E01801134A0244802090704800084482000F480244D48890
:401B4000E4B208010B4901448C71D088C0F30720C871D088C0B20871D288C2F307224A710133DBB2082BBED9FF22054B1A7010BC704700BF70600040D881FF1FFC5F0040A5
:401B80000A600040074B1A78074B03EBC2035B681A7C824204D9C000103018444068704700207047B181FF1F44320000F8B5404B1B7813F0FF0F79D03D4B18780138C0B258
:401BC000FFF7E0FF047AC2683A4B1878C0B200236AE01178884264D13749095CC9B25578A9425ED1917801F07F01D67806F00306DFF8C8E04D000D44AF000EEB07054FF0CE
:401C0000000C85F803C092F802C085F804C092F803C00EF807C097882F8192F90250002D0DDA012E01D1072700E00D274E000E44B500224E35446F7101266E700CE0012E70
:401C400001D1052700E009274E000E44B5001B4E35446F7100266E70DFF868E00F010EEB07060125B57001FA05F529448D00134929440D89C5F307250EF807500D89EDB2F7
:401C80007570CE88F6B20E4D3D44AE71CE88C6F30726EE71CE88F6B22E71C988C1F30721697108320133DBB2A34292D3F8BD00BFD381FF1FC881FF1F4482FF1FD881FF1F1A
:401CC00070600040FC5F0040034B1A78034B03EBC2035868704700BFB181FF1F4432000008B5084B18780138C0B2FFF74BFF30B142681279023200EBC203586808BD002032
:401D000008BD00BFD381FF1F2DE9F047002310E0724D5900CA189600AC190022AA55A270E2702281A272627034462C4462710133DBB2082BECD940B90AE000226849CA54A0
:401D40006849CA540133DBB200E00023012BF4D9654B1B7813F0FF0F00F0BD80624B18780138C0B2FFF70EFF80464368DB7913F0400F05D05D4A137843F00103137004E0AF
:401D80005A4A137803F0FE03137098F808704FF0000A01266FE0D8F80C50002467E0AB7803F07F039E425FD1314606EB460083004A4803441B899BB2A888834206D206EBBE
:401DC000460E4FEA8E03454A134418812B784448C35CDBB26878834246D195F802C0DFF8FCE04B000B4498000EEB000383F804C0EB780EF80030EB7803F0030395F90200BB
:401E0000002813DA012B02D14FF0070901E04FF00D09DFF8C8E04B0003EB010C4FEA8C00704480F805900121417012E0012B02D14FF0050901E04FF00909DFF8A0E04B00D9
:401E400003EB010C4FEA8C00704480F8059000214170AB790A2B01D0022B05D1524631462846FFF701FA824608350134E4B2BC4295D30136F6B2082E8DD9D8F80C000022C5
:401E80000CE0837803F07F0310F8084B03EB43039900124B19448C720132D2B2BA42F0D3FFF71EFF124B1860002301210FE00B4D4A00501884002C44E380228992B21344AD
:401EC0009BB203F0010213449BB20131C9B20829EDD9FFF705FEBDE8F08700BFD881FF1F4482FF1FB881FF1FD381FF1FD581FF1FCC81FF1F08B5154B1B7903F07F035A1EE2
:401F0000D2B2072A20D8590019448A0010490A44917841F0010191700021D170517841F002015170127912F0800F05D01B01094A1A448D23937004E01B01064A1A448923E5
:401F40009370FFF765FA08BD002008BD00600040D881FF1FFC5F0040274B1B7903F07F035A1ED2B2072A44D810B5590019448A0022490A44917801F0FE0191700021D170CF
:401F80001F4C1801215C01F07F012154517801F0FD015170127912F0800F13D003EB43018A0016490A445278D2B2012A04D1224602440C23937019E01B01114A1A440D232D
:401FC000937013E003EB43018A000C490A445278D2B2012A05D11B01094A1A440823937004E01B01064A1A4409239370FFF710FA10BD0020704700BF00600040D881FF1FEB
:40200000FC5F004010B50E4B1C79E4B20D4B18780138C0B2FFF7B6FD43681B799C4201D9022C0AD8084A135DDBB208490B55044B9B78DBB21355012010BD002010BD00BF88
:4020400000600040D381FF1F4482FF1FB881FF1F10B5964B1B78DBB20021954A118013F0800F00F0B380914A5278D2B20A2A00F27981DFE812F06F007701770177017701A6
:4020800077010B00770198007701A000874BDB78DBB2012B09D1FFF717FE4268844B5A6012221A80FFF7F6FA10BD804BDB78DBB2022B13D17D4B9878FFF764FD002800F0FB
:4020C000538142687A4B5A605A68D1785A68927842EA01221A80FFF7DDFA10BD734BDB78DBB2032B05D032E00A7811440133DBB201E000236F496D4A9278D2B2934203D293
:402100000A7812F0FF0FEFD1684B9B78DBB2EE2B00D16949654B9B7813F0FF0F0BD0634B9B78DBB2654A127C934204D1644C2046FFF7A0FC21460B7813F0FF0F00F0168150
:402140000B785B4A13805160FFF7A4FA10BD00F0BBF910BD13F0030317D0022B40F0088153490B80514B1B7903F07F0303EB43039A00544B1A449278D2B2534B1A700022DC
:402180005A704B60FFF786FA10BD494902230B804E4B1A78D2B24C4B1A7000225A704B60FFF778FA10BD424B01221A80484A5A60FFF770FA10BD3E4A012313803B4B1B796D
:4021C00044490B445360FFF765FA10BD374A5278013A0A2A00F2CE80DFE812F04C00CC009700CC000B00CC00CC00CC001300CC0030002E4B9B78DBB2374A1370FFF708F95E
:4022000010BD2A4B9B7803F0FF041BB1601EC0B2FFF7B8FC04B110B9002C40F0AD802C4B1B78DBB29C4206D0294B1C7001202B4B1870FFF769FDFFF7EBF810BDFFF7E2FEA4
:40224000002800F09B80194A1379DBB21279D2B223490A70234AD25CD2B21E49CB5CDBB29A4204D001221D4B1A70FFF79FFCFFF7CFF810BD03F00303012B35D04BB1022B4D
:402280007ED10A4B9B7813F0FF0F7BD1FFF764FE10BD064B9B78DBB2012B75D10B4A137803F0FD031370FFF7B3F810BD00600040BC81FF1FE432000030320000C833000050
:4022C0005882FF1FD881FF1F8C81FF1FD581FF1FD381FF1F4482FF1FD281FF1FD081FF1FC881FF1FB881FF1F2D4B1B79DBB2012B4CD82B4B98781B79DBB22A49CA5C22EAA7
:402300000002CA54FFF784F810BD03F00303012B17D04BB1022B3BD1214B9B7813F0FF0F38D1FFF7E7FD10BD1D4B9B78DBB2012B32D11D4A137843F002031370FFF768F883
:4023400010BD174B1B79DBB2012B27D8144B98781B79DBB21349CA5C22EA0002CA54FFF757F810BD002010BD002010BD002010BD002010BD002010BD002010BD002010BD17
:40238000002010BD002010BD002010BD002010BD002010BD002010BD002010BD002010BD006000404882FF1FD581FF1F08B50B4B1B7813F0800F0CD0084B5B78DBB2012BC6
:4023C00009D1074B074A5A6012781A80FFF762F908BD002008BD002008BD00BF00600040BC81FF1F08320000024B1878C0F38010704700BF8F4500407222074B1A70202252
:4024000001331A700622633B1A70472210331A70002251331A7070478664004010B500F04BF804460A4A137843F0200313700132137843F010031370023A137843F01003B9
:40244000137000F021F8204600F03AF810BD00BF9664004008B5054B1B7823B9FFF7CCFF0122024B1A70FFF7D9FF08BD8E81FF1F034B1B7813F0040FFAD1024B187070473D
:402480006564004045640040054A137843F0020313701032137843F002031370704700BFA2430040000000000230800803D000BF01380046FCD17047EFF3108072B67047D2
:4024C00080F31088704700BF08B5164B1B7803F00303012B02D0022B04D00FE0114B1B79DBB20CE00F4B1B7903F07F0303EB43039A000D4B1A44937ADBB200E00023022BA9
:402500000CD80A4A1268D35C022B04D0032B07D1FFF7EAF908BDFEF7B3FD08BD002008BD002008BD00600040D881FF1FCC81FF1F7BB972B90029BEBF00204FF0004106E0D4
:4025400008BF00281CBF6FF000414FF0FF3000F0B5B9ADF1080C6DE904CE002909DB002B1ADB00F035F8DDF804E0DDE9022304B07047404261EB4101002B1BDB00F028F8B1
:40258000DDF804E0DDE9022304B0404261EB4101524263EB43037047524263EB430300F017F8DDF804E0DDE9022304B0404261EB41017047524263EB430300F009F8DDF8A0
:4025C00004E0DDE9022304B0524263EB430370472DE9F04F8C460C460546099E002B4FD18A4217466BD9B2FA82FEBEF1000F0BD0CEF1200520FA05F501FA0EF345EA030C5F
:4026000002FA0EF700FA0EF5390CBCFBF1F0BAB201FB10C300FB02F84FEA154C4CEA0344A04509D9E41900F1FF3380F02881A04540F2258102383C44C8EB0404B4FBF1F3B3
:4026400001FB134C03FB02F2ACB244EA0C418A4209D9C91903F1FF3480F00F818A4240F20C81023B39448A1A43EA00400021002E63D022FA0EF2002386E80C00BDE8F08FC8
:402680008B4207D9002E56D0002186E811000846BDE8F08FB3FA83F1002940F09380A34202D3824200F2FE80851A64EB03039C460120002E41D086E82010BDE8F08F12B9C9
:4026C0000127B7FBF2F7B7FA87FEBEF1000F36D1E41B4FEA17481FFA87F90121B4FBF8F308FB134409FB03F24FEA154C4CEA0444A24207D9E41903F1FF3002D2A24200F237
:40270000D3800346A41AB4FBF8F008FB104809FB00F9ACB244EA0842914507D9D21900F1FF3402D2914500F2BA802046C9EB020240EA03409BE731463046BDE8F08F07FAC0
:402740000EF7CEF1200C24FA0CF34FEA1748B3FBF8FA1FFA87F908FB1A3520FA0CFC04FA0EF40AFB09FB4CEA040C4FEA1C4242EA05439B4500FA0EF50AD9DB190AF1FF32CD
:4027800080F08B809B4540F28880AAF1020A3B44CBEB0303B3FBF8F008FB103300FB09F41FFA8CFC4CEA03439C4207D9DB1900F1FF326ED29C426CD902383B441C1B40EA60
:4027C0000A418BE7C1F1200E8B4022FA0EFC4CEA030C24FA0EF74FEA1C49B7FBF9FA1FFA8CF309FB1A7720FA0EF88C400AFB03F548EA04044FEA144848EA0747BD4202FA40
:4028000001F200FA01FB09D917EB0C070AF1FF3041D2BD423FD9AAF1020A67447F1BB7FBF9F509FB157705FB03F3A4B244EA0747BB4208D917EB0C0705F1FF3027D2BB4272
:4028400025D9023D674445EA0A40A0FB0289FF1A4F4545464C4614D329D066B3BBEB050367EB040707FA0EFECB40CF404EEA030386E888000021BDE8F08F2346F3E61846C3
:40288000DAE6B8EB020569EB0C040138E5E70546D9E7104692E78246C0E7924678E702383A4443E7084604E7023B3C442AE7C345E7D33C46D1E73146BDE8F08F704700BFCF
:4028C000014B1868704700BF5C81FF1F0E4B70B51E460E4C0025E41AA410A54204D056F8253098470135F8E700F092FD084B094C1E46E41AA4100025A54204D056F8253076
:4029000098470135F8E770BD1C3400001C3400001C3400002434000010B5431E0A44914204D011F8014B03F8014FF8E710BD03460244934202D003F8011BFAE770470000E2
:402940000EB400B54FF402719CB0ADF814106FF00041049107914FF6FF711DAB02900690084853F8042BADF81610006802A9019300F064F8029B00221A701CB05DF804EBC2
:4029800003B070475C81FF1F2DE9F0478E6882469E420C46914698463ED88A8912F4906F3AD02568096902236F1A656905EB450595FBF3F57B1C43449D4238BF1D465305AC
:4029C0000FD5294600F040FB064698B13A462169FFF7A2FFA38923F4906343F08003A38113E02A4600F08EFB064670B92169504600F0DEFA0C23CAF80030A3894FF0FF301F
:402A000043F04003A381BDE8F08726613E44266046466561ED1BA560464528BF464649463246206800F0A8FAA36800209B1BA36023681E442660BDE8F08700002DE9F04F0B
:402A40009DB003938B8980461C060D4616460DD50B695BB9402100F0F7FA2860286118B90C23C8F80030CDE040236B610023099320238DF82930DFF89CB130238DF82A3009
:402A800037463C4614F8013B1BB9B7EB060910D003E0252BF9D02746F3E74B46324629464046FFF771FF013000F0A780099B4B4409933B78002B00F0A08000234FF0FF322B
:402AC00004930793059206938DF853301A930126052221784E4800F041FA671C049B38B14B4A3C46801A06FA00F018430490EFE7D90644BF20228DF853201A0744BF2B221A
:402B00008DF8532022782A2A03D0079A00210A200BE0039A111D12680391002A10DA524243F00200079204900BE027463B780134303B092B03D800FB02320121F5E701B189
:402B400007923B782E2B1ED17B782A2B0AD1039B02371A1D1B680392002BB8BF4FF0FF33059310E0002319460593781C0A2407463A780130303A092A03D804FB0121012314
:402B8000F5E703B1059103223978224800F0E6F940B14023CBEB000003FA00F0049B013718430490397806221B487E1C8DF8281000F0D4F988B1194B33B9039B073323F05F
:402BC00007030833039314E003AB00932A46144B04A94046AFF3008007E003AB00932A460F4B04A9404600F093F8B0F1FF3F824603D0099B5344099342E7AB895B0601D41D
:402C0000099801E04FF0FF301DB0BDE8F08F00BFDC330000E2330000E633000000000000892900002DE9F04791461F460A698B6806469342B8BF1346C9F8003091F8432048
:402C40000C46DDF8208012B10133C9F800302368990642BFD9F800300233C9F80030256815F0060510D104F1190A07E00123524639463046C04701301AD00135E368D9F8B1
:402C800000209B1A9D42F1DB94F843302268003318BF012392060FD5E118302081F843005A1C94F845102244023382F8431003E04FF0FF30BDE8F08704F143023946304601
:402CC000C0470130F4D02268D9F80050E36802F00602042A08BF5D1B2269A3680CBF25EAE57500259342C4BF9B1AED184FF000091A344D4509D00123224639463046C047F1
:402D00000130D5D009F10109F3E70020BDE8F0872DE9F04317460A7E85B06E2A984606460C460C9B01F1430E00F0AE8011D8632A22D009D8002A00F0BB80582A40F0CA808A
:402D400081F84520834955E0642A1ED0692A1CD0C0E0732A00F0B08009D86F2A2ED0702A40F0B8800A6842F020020A603EE0752A24D0782A3AD0ADE01A6801F14205111D9F
:402D80001960136884F84230A8E021681A6811F0800F02D0111D196008E011F0400F02F10401196002D0B2F9003000E01368002B3CDA2D225B4284F8432037E021681A68B6
:402DC00011F0800F02D0111D196007E011F0400F02F10401196001D0138800E01368227E5C496F2A14BF0A2208221BE078225A4984F845202268186812F0800F00F10405A6
:402E00001D6003D1550601D5038800E00368D00744BF42F0200222601BB9226822F0200222601022002084F8430001E049490A226568002DA56008DB206820F004002060C8
:402E40002BB9002D7DD175460CE0002B79D07546B3FBF2F002FB1033CB5C05F8013D03460028F5D1082A0BD12368DA0708D5236962689A42DEBF302305F8013C05F1FF35D7
:402E8000C5EB0E0323612EE008681A6810F0800F496903D0101D1860136808E010F0400F02F104001860136801D0198000E0196000232361754616E01A68111D19601568B7
:402EC00000216268284600F049F808B1401B6060636804E004F1420584F8422001232361002384F84330CDF800803B4603AA21463046FFF797FE013002D14FF0FF3026E09E
:402F000023692A4639463046C0470130F5D023689B0710D5002504F1190907E001234A4639463046C0470130E7D00135E368039A9B1A9D42F2DBE068039B9842B8BF1846C2
:402F400005E00B7804F1420584F842308AE705B0BDE8F083ED330000FE33000010B5C9B202449042034605D01C7801308C42F8D1184610BD002010BD884210B501EB0203C6
:402F800001D8421E0BE09842FBD28118D21AD34204D013F8014D01F8014DF8E710BD994204D011F8014B02F8014FF8E710BD000038B50546002944D051F8043C0C1F002B3E
:402FC000B8BFE41800F0D4F81E4A1368114613B96360146030E0A3420DD92268A018834201BF18685B681218226063600C6023E0A24203D813465A68002AF9D11868191823
:40300000A1420BD12168014458188242196013D110685268014419605A600DE002D90C232B6009E021686018824201BF106852680918216062605C602846BDE8384000F00B
:4030400098B838BD9481FF1F70B5CD1C25F0030508350C2D38BF0C25002D064601DBA94202D90C23336046E000F082F8234B1C681A462146A1B10B685B1B0ED40B2B03D9BA
:403080000B60CC18CD501EE08C420BBF63684B681360636018BF0C4615E00C464968E9E7174C23681BB9304600F052F820602946304600F04DF8431C18D0C41C24F003041B
:4030C000A0420DD12560304600F053F804F10B00231D20F00700C31A0ED05A42E25070BD211A304600F034F80130EBD10C233360304600F03EF8002070BD00BF9481FF1F76
:403100009081FF1FF8B5074615460E4621B91146BDE8F840FFF798BF1AB9FFF749FF2846F8BD00F027F885420ED929463846FFF78BFF044650B131462A46FFF7EDFB314677
:403140003846FFF735FF01E03046F8BD2046F8BD38B5064C0023054608462360FDF7B0FA431C02D1236803B12B6038BD7C82FF1F7047704751F8040C0028BEBF091851F881
:40318000043CC018043870470000000044F4FF7F01000000202020202020202020202020202020200000000025642E256420636D0000000025642E256420636D2F7300004B
:4031C000643A0000763A000025642025640A000030510040300000000140001000140140000800400140000A004C014000020050014020003031323334353637383941424B
:4032000043444546000000002800000000010400010000000000000000014359555342000000303030303100000000000000000012034D00530046005400310030003000F6
:4032400001000000010000004C32000001000000C83300000000000000000000010000006432000001000000843300000300000090320000000000000000000000000000BE
:4032800000000000000000008C320000020A000000008103080002000100820240000A000100030240000A00320005010902A1010901A100050919012903150025019503E0
:4032C000750181029501750581010501093009311581257F750895028106C0C00000000002030000040309042C0343007900700072006500730073002000530065006D00FF
:40330000690063006F006E0064007500630074006F007200100355005300420055004100520054003803430044004300200043006F006D006D0075006E0069006300610059
:40334000740069006F006E00200049006E007400650072006600610063006500260343004400430020004400610074006100200049006E0074006500720066006100630009
:403380006500000009024300020101C032090400000102020103052400100104240202052406000105240100010705810308000A09040100020A00000407058202400000FD
:4033C00007050302400000001201000202000008B40432F20100010280014300232D302B2000686C4C006566674546470030313233343536373839414243444546003031C7
:4034000032333435363738396162636465660000F8B500BFF8BC08BC9E4670474D0000003D070000F8B500BFF8BC08BC9E4670472900000048340000C880FF1F9800000059
:403440002001000000000000000000008082FF1F0000C05D80BB000030000000006CDC0200C2010000000800C201000000080000A1200000000002000000000000000000E0
:4034800000000000000000000000000000000000000000000000000000000000DA3300000000000000000000000000000000000000000000000000000000000000000000FF
:4034C00000000000000000000000000000000000000000000000000000000000FC80FF1F000000000000000000000000000000000000000000000000000000000000000032
:40350000000000000000000000000000000000000000000000000000000000000000000000000000000000000000000000000000000000000000000000000000000000008B
:40354000000000000000000000000000000000000000000000000000000000000000000000000000000000000000000000000000000000000000000000000000000000004B
:40358000000000000000000000000000000000000000000000000000000000000000000000000000000000000000000000000000000000000000000000000000000000000B
:4035C00000000000000000000000000000000000000000000000000000000000000000000000000000000000000000000000000000000000000000000000000000000000CB
:020000040003F7
:0200000480007A
:4000000001450040025200400364004001650040010101400203014061040140350501404506014039070140010D0140010F014037140140201501405616014036170140C5
:4000400001190140074001400B4101400542014002430140014401400245014002460140064701400348014003490140014C014006500140015101407E0201027C40850F39
:4000800086728738840DE2048240E602001002AC0580060307130C0C0E71140916D0170C18DC192C1A221B431F08201021712240230E24142A202D712F0630E0313033C03D
:4000C000341F350F390A3A023B203F014004454049FF4A074BFF4C404D204EF04F0550085608580459045A045B045C115D915F01604061A8624063208013820489028A1520
:400100008C138E0C960898039A14A301A80AAA14AB01B010B502B60FB701BA80BE01BF50C042C101C50CC6E0C70BC819C9FFCAFFCBFFCEF0CF44D00CD401D804D904DA0481
:40014000DB04DC01DD11DF01E6C0EA40EB02024103200541060409280D080F04108011081204152019011B201D401E40204021382680270829412A412F4830803128380802
:400180003C204040464548804F0450045204541055045A805D205E415F08600263026520670486049280C0DDC266C44ECAA9CC0ECE22D0B1D6F8D808000101020320040137
:4001C0000504080109040F0B10011104150B1B03210B250127202B0B2D032F103001313033043503370839803E013F014043410642054401450E470C481149FF4AFF4BFF7C
:400200004C624DA04EF04F41500C56025710580459045A045B045C105D115F016640670269106A306B106D106E106F1283019902AB01B302B501BF14D418D904DB04DD10D3
:40024000DF010429052206400D020F801E80200422042402252827402B042DA22F10332034103608370138023E143F8244104508464047404BC04C044E084F48570859015E
:400280005E80600462806C086E146F15748076287708960897809802A280A321A708AC10AE01C070C210CAF4CCE4CEF1D0D0D230D611D80CE602E2040E01120136013E40FF
:4002C000405449FF4AFF4BFF4F01501852805401560458045A045B045F016040624064406540668068806A806C806E8098029A049C049E03A406A806B406B601C054C9FFA2
:40030000CAFFCBFFCD83CE03CF01D018D804DA04DC01DF01E040E240E440E540E680E880EA80EC80EE8003010B400E040F02171419401E051F104101430147014B404F400D
:400340005945638072807340834091029601972099059B149E80A301C001C2C8C460D081D218D60BD801000101420206040705040807090C0D4F0F90100611081201154C1E
:40038000160117A31BB31C041DF31F0C234024022501280629FF2D03318C337C3607370F3BAA404549FF4AFF4BFF4D834E034F015018580459045A045C115F0160406240DB
:4003C00064406540668068806A806C806E80840788018A069004920194029601A807B207B607C045C5ECC720C823C9FFCAFFCBFFCD83CE03CF01D018D804DA04DC01DF01D2
:40040000E040E240E440E540E680E880EA80EC80EE8000100310042908020B200C800D0A0E22100815101708181019801F402469250226442DA02E012F1036553C403D109E
:400440003E283F024280468049054A024C044D204E0251015202942997A098029A289B1C9D80A088A108A301A502A921C076C2BCC462CAF0CCF0CEF0D081D218EE02EE02CD
:4004800030023310340236408002CCF0E22003405940834084029C029F10A640C010D480E480E64085409D409F10A640E6109F10A64082408480964096409C8008800B40B2
:4004C0000E4096409C80C20E9F10AE40EE4083109F10E220AF40000201010A020B0110031A0300AB02000102020002000000000008020200000000004000000000000000A2
:40050000C0000000000B0B0000000000007F7F00000000000004040000000000000000000000000000000000000000000000000000000000000000000000000000000000DF
:40054000000000000000000000000000000000000000000000000000000000000000000000000000000000000000000000000000000000000000000000000000000000007B
:40058000000000000000000000000000000000000000000000000000000000000000000000000000000000000000000000000000000000000000000000000000000000003B
:4005C00000000000000000000000000000000000000000000000000000000000000000000000000000000000000000000000000000000000000000000000000000000000FB
:4006000000000000000000000000000000000000000000000000000000000000000000000000000000000000000000000000000000000000000000000000000000000000BA
:0200000490006A
:0400000000004005B7
:0200000490105A
:04000000BC90ACAF55
:0200000490303A
:020000004EE8C8
:0200000490402A
:4000000000000000000000000000000000000000000000000000000000000000000000000000000000000000000000000000000000000000000000000000000000000000C0
:400040000000000000000000000000000000000000000000000000000000000000000000000000000000000000000000000000000000000000000000000000000000000080
:400080000000000000000000000000000000000000000000000000000000000000000000000000000000000000000000000000000000000000000000000000000000000040
:4000C0000000000000000000000000000000000000000000000000000000000000000000000000000000000000000000000000000000000000000000000000000000000000
:0200000490501A
:0C00000000012E12306900012E277F51F4
:00000001FF